:020000022000DC
:10600000C0F20020E1720300E3F00500B572030066
:10601000B5720300B5720300B57203000000000002
:1060200000000000000000000000000005740300F4
:10603000B57203000000000071730300B572030025
:1060400025760300C10705002576030025760300A9
:1060500025760300257603002576030025760300C8
:1060600025760300257603002576030025760300B8
:1060700025760300257603002576030025760300A8
:106080002576030025760300257603002576030098
:106090002576030025760300257603002576030088
:1060A0002576030025760300257603002576030078
:1060B0002576030025760300257603002576030068
:1060C0002576030025760300257603002576030058
:1060D0002576030025760300257603002576030048
:1060E0002576030025760300257603002576030038
:1060F0002576030025760300257603002576030028
:1061000081F0004102E000BF83F0004330B54FEA68
:1061100041044FEA430594EA050F08BF90EA020FD5
:106120001FBF54EA000C55EA020C7FEA645C7FEA68
:10613000655C00F0E2804FEA5454D4EB5555B8BF8B
:106140006D420CDD2C4480EA020281EA030382EAFC
:10615000000083EA010180EA020281EA0303362D8E
:1061600088BF30BD11F0004F4FEA01314FF4801C61
:106170004CEA113102D0404261EB410113F0004F73
:106180004FEA03334CEA133302D0524263EB43032A
:1061900094EA050F00F0A780A4F10104D5F1200EC8
:1061A0000DDB02FA0EFC22FA05F2801841F1000123
:1061B00003FA0EF2801843FA05F359410EE0A5F1F7
:1061C00020050EF1200E012A03FA0EFC28BF4CF028
:1061D000020C43FA05F3C01851EBE37101F00045DE
:1061E00007D54FF0000EDCF1000C7EEB00006EEBEB
:1061F0000101B1F5801F1BD3B1F5001F0CD3490875
:106200005FEA30004FEA3C0C04F101044FEA4452CB
:1062100012F5800F80F09A80BCF1004F08BF5FEA52
:10622000500C50F1000041EB045141EA050130BD32
:106230005FEA4C0C404141EB0101013C28BFB1F544
:10624000801FE9D291F0000F04BF01460020B1FA8F
:1062500081F308BF2033A3F10B03B3F120020CDA62
:106260000C3208DD02F1140CC2F10C0201FA0CF040
:1062700021FA02F10CE002F11402D8BFC2F1200CA5
:1062800001FA02F120FA0CFCDCBF41EA0C0190405B
:10629000E41AA2BF01EB0451294330BD6FEA0404A4
:1062A0001F3C1CDA0C340EDC04F11404C4F120028F
:1062B00020FA04F001FA02F340EA030021FA04F3A1
:1062C00045EA030130BDC4F10C04C4F1200220FAF8
:1062D00002F001FA04F340EA0300294630BD21FA36
:1062E00004F0294630BD94F0000F83F4801306BFFC
:1062F00081F480110134013D4EE77FEA645C18BFF0
:106300007FEA655C29D094EA050F08BF90EA020F86
:1063100005D054EA000C04BF1946104630BD91EA7E
:10632000030F1EBF0021002030BD5FEA545C05D181
:106330004000494128BF41F0004130BD14F58004C0
:106340003CBF01F5801130BD01F0004545F0FE4134
:1063500041F470014FF0000030BD7FEA645C1ABF69
:10636000194610467FEA655C1CBF0B46024650EAA0
:10637000013406BF52EA033591EA030F41F40021CC
:1063800030BD00BF90F0000F04BF0021704730B552
:106390004FF4806404F132044FF000054FF0000127
:1063A00050E700BF90F0000F04BF0021704730B5E8
:1063B0004FF4806404F1320410F0004548BF4042BD
:1063C0004FF000013EE700BF42004FEAE2014FEA12
:1063D00031014FEA02701FBF12F07F4393F07F4FED
:1063E00081F06051704732F07F4208BF704793F0F0
:1063F0007F4F04BF41F40021704730B54FF4607403
:1064000001F0004521F000411CE700BF50EA010205
:1064100008BF704730B54FF000050AE050EA0102AE
:1064200008BF704730B511F0004502D5404261EB1E
:1064300041014FF4806404F132045FEA915C3FF45F
:10644000D8AE4FF003025FEADC0C18BF03325FEAFC
:10645000DC0C18BF033202EBDC02C2F1200300FAAD
:1064600003FC20FA02F001FA03FE40EA0E0021FAD2
:1064700002F11444BDE600BF4FEA4102B2F1E0432D
:1064800024BFB3F5001CDCF1FE5C0DD901F0004C1B
:106490004FEAC0024CEA5070B2F1004F40EB83006B
:1064A00008BF20F00100704711F0804F21D113F197
:1064B0003872BCBF01F00040704741F480114FEAD0
:1064C0005252C2F11802C2F1200C10FA0CF320FA59
:1064D00002F018BF40F001004FEAC1234FEAD32376
:1064E00003FA0CFC40EA0C0023FA02F34FEA4303E0
:1064F000CCE77FEA625307D150EA01331EBF4FF069
:10650000FE4040F44000704701F0004040F0FE4083
:1065100040F40000704700BF53B94AB9002908BFD2
:1065200000281CBF4FF0FF314FF0FF3000F00CB8D7
:10653000ADF1080C6DE904CE00F008F8DDF804E0D8
:10654000DDE9022304B07047704700BF2DE9F04732
:1065500086468C460846089E154674461946002B0A
:1065600040F0C2808542B2FA82F245D94AB1C2F106
:10657000200300FA02FC2EFA03F3954043EA0C0CC8
:1065800094404FEA154EA8B2BCFBFEF8230C0EFB5C
:1065900018CC08FB00F943EA0C43994528D9EB18BD
:1065A00008F1FF3704D2994502D9A8F102072B441C
:1065B000A3EB0903A4B2B3FBFEFC0EFB1C330CFBE4
:1065C00000F044EA0344A04214D92C190CF1FF3323
:1065D00004D2A04202D9ACF102032C44241A43EAAB
:1065E00007401EB1D440002334607360BDE8F087DB
:1065F0004746DDE76346F1E792BB431B01214FEAC3
:10660000154EAFB2B3FBFEFC200C0EFB1C330CFB93
:1066100007F840EA0343984562D9EB180CF1FF30C4
:1066200004D2984502D9ACF102002B44A3EB080335
:10663000A4B2B3FBFEFC0EFB1C330CFB07F744EAD1
:106640000344A7424ED92C190CF1FF3304D2A742C0
:1066500002D9ACF102032C44E41B43EA0040C0E73A
:10666000C2F1200320FA03F1954090402EFA03F383
:1066700003434FEA154EAFB2B1FBFEFC0EFB1C10FC
:10668000190C0CFB07F841EA0041884504FA02F4B2
:1066900022D969180CF1FF3004D2884502D9ACF137
:1066A00002002944A1EB08019BB2B1FBFEFC0EFBEA
:1066B0001C110CFB07F743EA01439F420ED9EB186C
:1066C0000CF1FF3104D29F4202D9ACF102012B44FC
:1066D000DB1B41EA004192E76046E3E76146F7E7EA
:1066E0006046A3E76346B7E7834206D916B900219F
:1066F00008467BE7C6E900E0F9E7B3FA83F78FB90C
:10670000834201D3724508D8BEEB020460EB030359
:1067100001209C461EB9002168E73846FAE7C6E921
:10672000004CF8E7C7F1200CBB4022FA0CF41C43E4
:106730002EFA0CF120FA0CF3B84001434FEA144949
:106740000EFA07F5B3FBF9F81FFA84FE09FB1830BF
:106750000B0C08FB0EFA43EA00439A4502FA07F2D3
:1067600040D9E31808F1FF3004D29A4502D9A8F1C4
:1067700002002344A3EB0A0389B2B3FBF9F809FB37
:10678000183308FB0EFE41EA03418E452CD96118EF
:1067900008F1FF3304D28E4502D9A8F10203214447
:1067A00043EA0040A0FB0298A1EB0E014145CE4612
:1067B000434602D306D14D4504D2B9EB020E68EB35
:1067C00004030138002EA6D0B5EB0E0261EB0301E5
:1067D00001FA0CFC22FA07F34CEA0303F940C6E97C
:1067E000003198E74046C5E74346D9E710F8012B4A
:1067F00011F8013B012A28BF9A42F7D0D01A7047FE
:10680000034611F8012B03F8012B002AF9D1704738
:10681000034613F8012B002AFBD1181A01387047E0
:106820002DE9F0414A4D88B0D5F85C31996811F0F6
:10683000010100AF25D107F1080240F6034012F034
:10684000D9FD044600287ED1BC68E3681B78ABB94B
:1068500014F008FDBFF35B8FD5F8D430BFF35B8F26
:1068600005F1D40203F00903BFF35B8F52E8001F68
:1068700042E800300028F9D1BFF35B8F20462DF0AD
:10688000A9FA07F10802002141F2030012F0B2FD5B
:106890000446002857D1BB682E4EDA68D2F80100B2
:1068A000D2F8051003C618462DF094FA214607F1D8
:1068B000080241F2010012F09DFD0446002842D179
:1068C000B868C3685A7885F870205A88A5F872208D
:1068D0001A7985F87120B3F80720A5F87420B3F869
:1068E0000530A5F876302DF075FA214607F108023B
:1068F00041F2020012F07EFD044620BBD7F808806A
:10690000D8F80C20531C413218685968344603C427
:10691000083393422646F7D10F4838F092FC4046A0
:106920002DF058FA95F87C305A061BD40B4BFB61BE
:1069300002230B48BB6107F118024FF482516FF03C
:10694000120438F06EFD20462037BD46BDE8F081C8
:1069500050010020C8010020D001002029EB0600D2
:106960000C48060007F10802002142F2030012F071
:1069700041FD04460028E6D1BB68AB4EDA68D2F888
:106980000100D2F8051003C618462DF023FA21465F
:1069900007F1080242F2020012F02CFD0446002822
:1069A000D1D1BC68E368B3F8012091B249B1D9787C
:1069B00039B1A5F80421DA78114606F128003CF037
:1069C00074FB20462DF006FA95F87C6016F0200640
:1069D00018D1022140F66D4012F0C6FB0446002893
:1069E00000F0CD8002210C303BF0D2FA012303707D
:1069F00046702146324640F66D4012F0FBFC0446DC
:106A00000028A0D195F89C301B0713D507F1080288
:106A1000002142F21C0012F0EDFC0446002892D145
:106A2000B868C368D3F80120D3F80530C5E9382326
:106A30002DF0D0F995F8D8309E0622D5391DB81C16
:106A400012F05AFD044600287FF47DAF042142F283
:106A5000240012F089FB0646002800F090800421F3
:106A60000C303BF095FA7B880380BB88438022463C
:106A7000314642F2240012F0BDFC044600287FF4A7
:106A800062AF95F8D8305C0611D507F108020021F5
:106A900042F22A0012F0AEFC044600287FF453AF05
:106AA000B868C3685B7885F820312DF093F9082128
:106AB00042F2010012F058FB044600285FD0082182
:106AC0000C303BF065FA95F8D81011F0400F0246F3
:106AD00040F2022308BF032388074CBF43F02C0079
:106AE00043F00C008B0695F8D93048BF40F04000C9
:106AF00013F0090F95F8A23018BF40F4006003F0BE
:106B00000603CE0748BF40F01000062B08BF40F434
:106B1000C070002138F094FC2146002242F20100AE
:106B200012F068FC044600287FF40DAF95F87C3025
:106B3000B5F80411980625D4D1B907F1080241F23D
:106B4000050012F057FC044600287FF4FCAEB5F8AF
:106B50000431BC684BB9E368B3F80120A5F80421FF
:106B60009A88324811463CF0A0FA20462DF032F9BE
:106B7000082140F6014012F0F7FA044690B96FF090
:106B80006804E0E60029F3D1294BFB610223294880
:106B9000BB6107F118024FF4825138F042FC6FF0EC
:106BA0000404D0E608210C303BF0F2F995F8D83017
:106BB000D907024653BF4FF0005119A1D1E9000196
:106BC0001D4838F03DFC2146002240F6014012F0FD
:106BD00011FC044600287FF4B6AE01463A1D4FF67C
:106BE000014012F007FC58B3144BFB61022311481B
:106BF000BB6107F118024FF4845138F012FC38F0F1
:106C000029FE044600287FF49EAE15F073FF04466B
:106C100000287FF498AE13F045FA044693E600BFCF
:106C200090880002008000202802002058020020E6
:106C30004DEB06000C4806001088000270EB0600C1
:106C40007B68DC68B4F80130032B96BF434A4449A3
:106C500052F823106D468AB06A464248D3614FF419
:106C600000731384404BC2E9050142F8103F3F48CE
:106C70004FF4135138F0D5FBB4F80120B4F80330C9
:106C8000022AAD4648D1032B46D8394A52F8231080
:106C90006D468AB06A463748D3614FF40073138457
:106CA000314BC2E9050142F8103F4FF413512F4810
:106CB00038F0B7FB6379A679D4F80900032BAD4609
:106CC00098BF2D4AB4F8075094BF52F823102449B6
:106CD0006C468CB06A46DFF8B4C0C2E907364FF4A0
:106CE00000739385254BC2E905C1C2E909504FF4F1
:106CF000735142F8103F1D4838F093FBA546786861
:106D00002DF068F83A1D00214FF6024012F072FB98
:106D1000044618B11A4B68E71149B9E77868194D6C
:106D2000C368B3F80130A5F8C1302DF053F895F8D9
:106D3000C1305B077FF563AF3A1D21464FF6034034
:106D400012F058FB08B1104B4FE77868C3685B78C6
:106D500085F8C0302DF03EF851E700BFFC71060009
:106D60008EE5060094EB0600040000010C480600C6
:106D7000EC710600ADEB0600DC71060007000001B7
:106D8000F2EB0600500100201BEC0600C5EB0600EC
:106D90002DE9F843D0E90C35D0F82C805C1930345B
:106DA000A0450F46164619D81D4DA3FB05011AA391
:106DB000D3E90023FFF7B0FB0346A4EB0800A0FBD8
:106DC000050123F07F4414A3D3E90023FFF7A4FBBC
:106DD00020F07F403C603060BDE8F883DFF84090F1
:106DE0000DA3D3E90023A8FB0901FFF795FB044697
:106DF00005F1300008A3D3E90023A0FB0901FFF748
:106E00008BFB24F07F4420F07F403C603060BDE885
:106E1000F88300BFAFF300808D49FD1A0700000022
:106E200000CA9A3B000000009FED0D7B124B134AF5
:106E30001348144910B483ED007B9FED0B7B82ED6A
:106E4000007B9FED0B7B104B4FF0FF34002281ED58
:106E5000007B04601A605DF8044B1FF00BBC00BFA0
:106E6000FFFFFFFFFF1F0000000000000000000008
:106E70001F00000000000000D8020020B0600020C9
:106E8000B88F0020D0020020B08F0020000000004A
:106E9000002800F05F812DE9F04FB54C94F86A208E
:106EA00012F001058DB040F0A78194F82500FF2372
:106EB00000F0030084F8263028F062FF94F86A009E
:106EC000420727D494F8292094F8353004EB820245
:106ED00004EB8303D66AD3F8388086B1A4483146E0
:106EE00021F0F8FB33785B0605D506211CF0AAFAE1
:106EF000002800F083819E48414621F0EBFB337867
:106F000013F00E0F40F0B780236A93B10C200DB040
:106F1000BDE8F08F2A4604F16B01C0F3C00029F0F0
:106F2000CBF8FF2884F82600CCD0284628F06EFF46
:106F3000C8E71EF083FC8146002800F071811EF036
:106F400089FC8246002800F0688121F0F1FF0546A7
:106F5000002800F06781D0F888004FF6FF732B857A
:106F600005F11C0B002800F04F8105F1780105F1B7
:106F70007C021CF073FAB5F876307E4A23F4EF6396
:106F800023F0070343F4887343F00103A5F8763038
:106F90001346D2F80120C5F89B21C5F8A12113F8AA
:106FA000012B9B88A5F89F31A5F8A53195F89A315A
:106FB00002F0010262F3000362F3410385F89A31A3
:106FC00095F8393003F03F0363F07F0385F83930DB
:106FD00095F88E3023F0070385F88E3095F83C3015
:106FE00023F00703002785F83C304FF4C023C5F891
:106FF00088312846C5E91277C5F88870A5F88C70E5
:107000006F86C5F82E7085F83B702F65A5F88E71D8
:10701000A5F8847124F032FD85F85071C5F85491BB
:1070200022F024FA95F8943160F3020385F8943144
:1070300022F022FA95F8943160F3C50385F8943173
:1070400095F8803167F3410385F8803101212846A6
:1070500022F072FE05F1D40024F098FAC4E9189ADF
:10706000C4F820B0C5E905772F70ED612AF056F914
:10707000002840F0C58094F824300121C3F3420376
:107080000DF12B008DF82B301CF086FB02460028FA
:1070900062D098F80110304621F0DEF831233649ED
:1070A000A360364BB4F86870A0FB01010025C0183E
:1070B00041F107012CA3D3E90023C4E9055525704C
:1070C0006560E560FFF728FA20611DF099FE00F188
:1070D00009083FB9357805F00F05A5F10105B5FAA6
:1070E00085F56D0994F82400236965F3000010F01C
:1070F000010584F824004BD0214A09920020106039
:107100000225204A204F04930BAE019305920321E0
:10711000CDE90200069443460090089607972A4658
:107120000B951DF00BFD31461EF04EFCA0B9174922
:1071300005914AF2D8330093CDE90300CDE901006F
:107140000797089606944346012203210B951DF0EC
:10715000C1FC43E020F0CCBF236A002B3FF4D6AE45
:1071600020F084FFD2E600BF8D49FD1A0700000021
:10717000709000202BE3060000CA9A3B8C49FD1A50
:1071800064900020D5820400914F0400E97D040042
:107190002B4A2C48049303F247130694029591213D
:1071A0001360A7FB000301FB0731274B0793274B15
:1071B00005934FF6FF730992022703930BAE1EA3AC
:1071C000D3E900230B970896FFF7A6F94346CDE9CC
:1071D00000503A46284603211DF0B0FC31461EF00F
:1071E000F3FB0028B8D194F86A3043F0010384F827
:1071F0006A3021F091FC60B1002088E6122086E61A
:1072000020F034FF032082E605F18000C5F88800F5
:10721000ABE6012028F096FDEEE748461EF014FB91
:10722000072074E650461EF01BFB48461EF00CFB80
:10723000F6E700BFAFF300808D49FD1A070000009C
:1072400064900020002AE784914F0400D582040056
:1072500070B590F824308AB0C3F342030D4604465B
:1072600001210DF1230016468DF823301CF094FA0D
:1072700071780246284620F0EFFF1F491F4AA0FB05
:107280000131981841F1070119A3D3E90023FFF751
:1072900043F923699842054621D21B1A0022019224
:1072A000174A0293174BA21AA3FB0232022192093A
:1072B00000230A4409AE099113490591CDE903332E
:1072C0000321D2B20696009318461DF097FC314672
:1072D0001EF07AFB38B9256100200AB070BDFBD9D9
:1072E000C21A0023DBE70C200AB070BDAFF30080A8
:1072F0008D49FD1A0700000000CA9A3B8C49FD1A0F
:107300007090002089888888914F04000000000058
:1073100038B5194C9DF810E094F848C01CF00105F0
:1073200023D163F3420C400194F83230A1874FEA35
:10733000CE0E0EF0180E00F0200040EA0E0023F0F2
:10734000380303430D4884F832309121A2FB000337
:1073500084F848C001FB023105A3D3E90023FFF7FD
:10736000DBF8C4E91000284638BD0C25284638BD96
:107370008D49FD1A07000000B8600020002AE7844C
:1073800010B504469DF8080022844FEA411CC00055
:10739000A17D00F018000CF0200C4CEA000C0C4809
:1073A00021F038014CEA010CA3FB0002912184F882
:1073B00016C001FB032104A3D3E90023FFF7ACF8B7
:1073C000606210BDAFF300808D49FD1A0700000018
:1073D000002AE784000000002DE9F047044600F190
:1073E000350190F8480094F832305B4DDFF8808129
:1073F000C0F3400060F386138CB084F832301DF087
:1074000053FD94F83220A38F5448E46102F07902CE
:10741000002784F832209121A3FB0002C4E90577FC
:10742000277001FB03214AA3D3E90023FFF774F877
:10743000651B626C4A4B6760AD08A3FB053502F122
:107440000903984298BF3A46C5F3470522644FF0B6
:1074500031028CBF19460146A26005EB4502E76088
:10746000216148F8221006461DF0CAFC236A00F18B
:1074700009074FEA450A002B4AD00DF12C09AA440E
:1074800008EB8A030993CDF820900694A38F334824
:107490004FF00008A3FB0002CDF80C80912101FB06
:1074A0000321236904932F4B07932F4B05934FF030
:1074B000020A27A3D3E90023CDF82CA0FFF72CF86C
:1074C000104619464FF47A720023FFF725F8043569
:1074D000EDB2CDE9016003213B462A46CDF800809C
:1074E00040461DF02BFB49461EF06EFA60B994F839
:1074F000483043F0010384F8483021F0C1F808B364
:1075000000200CB0BDE8F0870C200CB0BDE8F0877F
:107510000DF12C09CDE90A3321694B460AAA032053
:1075200001F096F90028AAD10B99104808A3D3E9D5
:107530000023A1FB0001FEF7EFFF0A9B20F07F472D
:107540001F449CE7504628F0FDFBD9E7AFF30080CD
:107550008D49FD1A07000000B8600020002AE7846A
:10756000BD86F21A914F04000989040000CA9A3BB3
:1075700000910020000000002DE9F04F05468BB07F
:107580008B46012002219A4614462CF06BF900220A
:107590000221814601201BF0B1FF3B494FF4D47218
:1075A00028461BF03BFF461DF6B2384B009532468D
:1075B000012100201DF03AFB10F0FD0F0CD0344AE1
:1075C0003449354840F62F0335F082FC404080F3C3
:1075D00011884FF0030002DF304BA4FB0348204624
:1075E00027A3D3E900234146FEF796FF2C4B20F05A
:1075F0007F47A7FB03310722E01A02FB071168EB64
:1076000001014FF47A720023FEF786FFCDE9017085
:10761000CDF800B008950695296995F939402148BB
:107620000491214931EA240128BF014605911F4CEC
:1076300007944FF6FE710391534632460121002014
:107640001DF048FA10F0FD0F0CD0114A11491248F4
:1076500040F6440335F03CFC404080F311884FF085
:10766000030002DFB9F1000F02D10BB0BDE8F08FCB
:107670000122022110460BB0BDE8F04F1BF03EBFC7
:107680008D49FD1A0700000008610020D98E040012
:10769000747D0600387E0600A476060000CA9A3B78
:1076A0008D49FD1AB5EE04005DF00400818E0400E2
:1076B0002DE9F043C469228D4FF6FF739A428DB0D5
:1076C00000F088800546204624F0AAFC95F8283072
:1076D000012B00F00F81022B00F00281002B00F043
:1076E000E18094F85071002F40F0FD80E68DB4F8F1
:1076F0003080002E71D1AA8C08F101060023CDE95B
:107700000A33B6B2002A70D094F93930002BC0F297
:1077100048810023A4F88A3195F82630D90740F132
:10772000EF800023A4F88E310DF127023146204668
:1077300024F0E0F9743000F04681B4F888312BB1C0
:10774000B34240F20D819B1BA4F88831B4F8843118
:107750002BB1B34240F2FB809B1BA4F88431258EF1
:1077600017B9A84500F0EA800135ADB294F8D130E0
:1077700013F001065AD1DDE90A130A46002B40F046
:10778000ED80002900F0DC801E461846228DE46959
:107790000694CDE903570532A74D0290CDE90016B6
:1077A000D2B20121002005951DF028FA10F0FD0F3E
:1077B00010D01EF033F984420CD0A04AA049A14851
:1077C00040F2155335F084FB404080F311884FF0B0
:1077D000030002DF0DB0BDE8F083AA8C464400230D
:1077E000CDE90A33B6B2002A8ED195F82630DA07F1
:1077F00097D4B4F88A31002B00F08280B34240F273
:10780000FA809B1BA4F88A31B4F88E31002B8BD000
:107810009E4280F0DE809B1B9BB20022062BA4F8C8
:107820008E31228600F2AC8001277DE794F9392061
:107830006FF30003002A84F8D13077DB94F87600E8
:10784000C0F3C00100F0070029F0CEFBB4F86E20B1
:10785000B4F86C30134403F2D51303447A4A7B48DE
:107860000721E3FB0021104671A3D3E90023FEF7B3
:1078700053FEDDE90A1320F07F4220692261904225
:1078800035BF161A801A002000260A46002B7FF406
:107890007DAF56EA010C7FF479AF002850D019462D
:1078A0001E4673E794F88E3003F01803182B7FF40C
:1078B00018AFA18DB4F886218B1D9A42C4BF931FC7
:1078C0005B1AB4F88211CCBF9BB21346994200F008
:1078D0008C80A4F88231A4F88431A4F8882100E7D0
:1078E0003D2784F85071394620460DB0BDE8F0437D
:1078F00021F0E0BE0023A4F88831A4F88431F0E63A
:10790000B4F88E31002B83D1628DB4F88C3140F203
:10791000E24101FB02F242F2107101FB0323013B41
:10792000B3FBF2F39BB2A4F88E316FE794F87700C3
:10793000012100F0070029F059FB87E73D4615E7D4
:10794000002D4BD000261146304633461EE700235B
:10795000A4F88431204624F06DF900E7304615E79D
:107960001DF0C4FF014600283BD00023A4F8883155
:10797000238DC3801B23037100681DF081FFE5E6A2
:1079800094F939309342BFF6CFAEB8F1000F7FF4CF
:107990004BAFD4F878315A08DB0743D4C4F87821C8
:1079A000C2E628460AAA0BA904F1D409FFF7F0F9A8
:1079B000484623F02DFE18B3484623F029FE18B39D
:1079C00000232386A5E69DF82710204621F072FEAD
:1079D00000E70821204621F06DFEFBE6002FB1D123
:1079E000F8E60123A4F88831B0E6B4F8881100293C
:1079F0007FF477AE6FE73E21204621F05BFEE9E69B
:107A0000FF2021F00FFED7E70246D4E91E011BF04C
:107A10003DFD0028D4D194F83C30580744BFA38DD5
:107A2000238676E642F00042C4F87821FCE600BFE7
:107A30008D49FD1A07000000418E0400747D060088
:107A4000847E0600A47606008C49FD1A00CA9A3B83
:107A50002DE9F04F87B0CDE90432BDF8442003781A
:107A60000292BDF84820BDF84080BDF84C50468ECB
:107A7000B0F82E90B0F814B1019104460392002B97
:107A800000F0CB80013EB6B2A368D4F80C71721B33
:107A900092B2002B009209DAE168626823F0004399
:107AA00091422CBF7F18BF18A360FF1A009A638D04
:107AB00013FB02F39BB2B3FBF8F218FB02F080B2A7
:107AC00083421FFA82FA80F09780C01A40F2E242A5
:107AD0005D4902FB00F0A0FB010159A3D3E900239B
:107AE000FEF71AFD20F07F400744D94494F839305E
:107AF0004D44AD1B554440F2E246DB09E58506FBEB
:107B000008F500F08E80226C0099A36CDFF838B184
:107B100002FB1133A36429F053FC814694F87401ED
:107B2000C0F3420029F04EFC059B814406FB03F3A1
:107B300005FB09F9236509F57429444B09F23F292E
:107B4000A3FB09394FEA994303FB0AF02364A5EB31
:107B50000309A36C6A080344963A934228BF13466C
:107B6000C4E911230023C4F87C31A0FB0B0134A32A
:107B7000D3E90023FEF7D0FC049B3F1A3448A0FB56
:107B80000330800A06FB00F02DA3D3E90023A0FBFD
:107B90000B01FEF7C1FC20F07F46029BA385039BEF
:107BA000A4F88C3129462046A4F82A8023F0DEFF71
:107BB000284BA18D2B44881DB3FBF5F39AB290425C
:107BC000A4F8862102D2521A063A92B2019BA4F876
:107BD000822113B10023A4F88E313B464A46314638
:107BE0002046FFF7C9FC94F8803143F0010384F884
:107BF000803107B0BDE8F08F08FB1231124840F227
:107C0000E24389B203FB01F1A1FB00010CA3D3E91C
:107C10000023FEF781FC3F1A67E74E445E44B6B28C
:107C200032E7049B0848A3FB000105A3D3E9002326
:107C3000FEF772FC20F07F46A9460136ADE700BF93
:107C40008D49FD1A0700000000CA9A3B83DE1B43E2
:107C50005917B7D17FC3C9012DE9F04F04460B680E
:107C6000077F1668D3F800A0638CD0F81E0095B08B
:107C700015464A7CADF84C30FF2AC7F3801389467D
:107C80000D9212908DF83F3072D198461A4612AB81
:107C900093E803000DF1400B1090ADF84410F80983
:107CA0000AF1710127680A915B460C900B9721F04D
:107CB000E9FB0A99002843D196F89A310C9A0A9068
:107CC00068F3410362F3000386F89A311098BBF819
:107CD0000430C6F8A101A6F8A531DAF87130C6F86B
:107CE0009B318B88A6F89F31E38D94F83010A972F0
:107CF0002B81D4F82A306B60D4F83A30AB6105F1AF
:107D0000180094F83E30037105211BF045FD6B7F90
:107D100000F03F0060F305036B7794F83F30C3F346
:107D20000401A977A18EE981012803F01F0389B21C
:107D300006D91B3303F01F030B2B01D80A9A59BB3A
:107D40000022CAF8142095F820300B9862F3000343
:107D500085F82030E5680126214626711DF086FD54
:107D600028682E7129461DF08BFD15B0BDE8F08FF7
:107D70000DF1400B10460DF13F015A4627F058FD1A
:107D80009DF83F80277F08F102085FFA88F88DF898
:107D90003F8008F0010282E7D9F800305A60E38E94
:107DA0002B82EB8940F2E24808FB03F71146638E11
:107DB0000A93304623F0EEFE94F83F3096F8742193
:107DC0005B0963F3430286F8742129F0F9FA0C90F9
:107DD00096F87401C0F3420029F0F4FA0C9B1844A1
:107DE00007FB00F0BA4B00F5742000F23F20A3FB24
:107DF00000307B08800C963B6862AB6294F83130AF
:107E000008FB03F3AB63238FA6F88C313946304669
:107E100023F0ACFEAF4BB04AC6F890213B44B3FB15
:107E2000F7F39AB2A6F88621298A881D824204DDDA
:107E3000C1F57F41FA310A4492B2A6F882216B68FB
:107E4000C6F87831234613F81C2FC2F34018DA071E
:107E500000F104814FF48073A3839AF8260028F080
:107E600041FA04F12B03002800F0EE80626AC4F8A6
:107E70002B20228D9A800D9BFF2B00F0E980BDF80E
:107E80004C301298A4F82930C4F82500BBF804300F
:107E9000A4F8233010989DF83F30C4F81F00A37752
:107EA000EB8963862B8AA386B6F88C31E38696F835
:107EB0007431C3F3420384F83830304621F044F87B
:107EC000A881E08021460B98D9F804401DF0CEFC33
:107ED000AB89E3801C23D4F800B02371B8F1000F04
:107EE00040F0D18084F81C80214658461DF0C8FC23
:107EF00095F85B00B5F85080B5F85240012100F0CC
:107F0000070029F073F8444404F2D514DFF8D48153
:107F10000444834671480721E4FB0801312300240F
:107F2000B360746068A3D3E90023F460FEF7F4FA49
:107F300020F07F4030616D6A0A9A7D1BD9F80C7081
:107F400040F2E24303FB02770221224601201BF0AC
:107F5000D5FA504620F07AFB07F2B2470246A7EB6B
:107F60000B07A7FB0801174657A3D3E90023FEF729
:107F7000D3FACDF804A0D9F808305949009120F07F
:107F80007F48BA1C3A3BD2B22046434401211CF040
:107F90008FFE012800F082809AF82430DB076AD433
:107FA000304620F0D1FF4F4BA5FB035A044646A3B1
:107FB000D3E9002328465146FEF7AEFAD9F8083037
:107FC000494A0792A3F13A09484B069620F07F47A9
:107FD000A7FB0331E81A464B059340F2D1130893EF
:107FE00033694FF0000BCDE903B34FF0070303FBF8
:107FF00007116AEB01014FF47A720023FEF78CFA45
:108000000534E4B2CDE90170CDF800804B4622463C
:10801000012158461CF05EFD10F0FD0F0CD0354AD2
:10802000354936484FF4E97334F052FF404080F34D
:1080300011884FF0030002DF0122022110461BF0DD
:108040005DFA15B0BDE8F08FC4F82B00988012E7F8
:108050000022C4F82520A4F8292017E7254A28493A
:108060002648F82334F034FF404080F311884FF065
:10807000030002DFEEE600230122009318461146BA
:108080001CF0D4FD8CE76B7F43F040036B77281D19
:1080900027F0C6F94FF00108E88323E71DF0BEFC86
:1080A00082453FF479AF134A1649144840F27923C8
:1080B00034F00EFF404080F311884FF0030002DFE0
:1080C0006AE700BFAFF300808D49FD1A070000008A
:1080D00083DE1B437FC3C901404B4C008C49FD1A12
:1080E00079EE040000CA9A3B49EE04008D49FD1A5E
:1080F000B5EE040038830600387E0600A47606003C
:10810000747A0600948306002DE9F04F8DB01F4667
:10811000BDF860300793CDE90501BDF868309DF8E2
:108120005C90BDF864B004930020164620F002FD78
:10813000002800F0658109F00108044640461CF063
:10814000A3FE0390B8F1000F6DD1169B03993A4638
:10815000404621F097F9002840F06381236A04F13A
:108160001C020892002B65D0D4F820A0DAF8005049
:1081700007F0010B9AF85A00C0F3C00100F00700A5
:1081800028F032FFBAF85210BAF8502000F2D51396
:108190000A441344CC48CD4A0721E3FB0021104692
:1081A000C7A3D3E90023FEF7B7F920F07F40286189
:1081B000304627F007FE94F833306FF3410384F81C
:1081C0003330FF2384F83430002E00F01D81A9F1F4
:1081D0000203012B40F2298194F84810089869F3B2
:1081E000420184F8481094F833106BF30001DDE984
:1081F000052384F8331016990968616216998988F5
:1082000021850499218600960021FFF7B9F8606462
:1082100029F084F8002840F013812046FFF7DCF8AD
:108220000DB0BDE8F08F06211BF00CF900288CD1B1
:108230001220F5E71DF002FB0990002800F0738181
:1082400020F076FE0546002800F06A8120301BF001
:10825000B7FA05F11C0A002840F01D81032105F141
:10826000240028F075FD079BD5F888006B854FF634
:10827000FF73A5F82CB02B85002800F0198105F1BB
:108280007C0205F178011BF0E9F8B5F8763023F4AB
:10829000EF6323F0070343F4887343F00103A5F869
:1082A000763095F88E304FF0000B23F0070385F8F9
:1082B0008E300121C5F888B0A5F88CB0284621F091
:1082C0003BFDC5F82EB0A5F832B005F1340027F01B
:1082D00051F895F8393060F30503012185F83930FC
:1082E0000DF12F0028F034FD049B9DF82F20A5F8F8
:1082F0008C31774B85F83BB0A3FB0213DB0803EB13
:108300004303A2EB830295F83930A98DA5F88EB10D
:1083100003F03F0385F8393095F83C30A5F884B177
:10832000053223F0030385F83A20079A85F83C309C
:1083300040F2E24B674B0BFB02FB4FF4C0225B4465
:10834000C5F88821881DB3FBFBF39AB28242A5F8D9
:10835000862102DD063A521A92B2A5F882212846F9
:1083600023F08CFB5946284623F000FC099BC5F8F6
:108370005431002385F8503121F078F895F8942194
:1083800060F3020285F8942121F076F895F89421A3
:1083900060F3C50285F8942195F88021002363F3EA
:1083A000410285F8802105F1D40023F0EFF895F81B
:1083B0009A21169907F0010B6BF3410285F89A2177
:1083C0003122AA600023169A6B60EB601268C5F830
:1083D000A12195F89A218988A5F8A51169F30002D1
:1083E000039985F89A210A68C5F89B218A88A5F81F
:1083F0009F21C4F820A0C5E905332B70ED61B9E6D3
:108400000C200DB0BDE8F08F28F01CF900283FF4D7
:10841000DEAE16993846324627F04EFE84F8340018
:10842000D5E60B200DB0BDE8F08F002027F0EEFC64
:1084300094F8333043F00203C14684F83330CBE67E
:10844000256AEB6E63B1244A2449254840F21D4356
:1084500034F03EFD404080F311884FF0030002DF0E
:1084600005F1600105F15C001AF0FCFF06460028EA
:108470003AD02F68EE66D7F85451002D42D02846E6
:108480001DF0E2F9384620F059FD00230320236255
:108490000DB0BDE8F08F104A12491148C12334F0E5
:1084A00017FD404080F311884FF0030002DFD5E64E
:1084B00005F18000C5F88800E1E600BFAFF3008059
:1084C0008D49FD1A0700000000CA9A3B8C49FD1A2D
:1084D000ABAAAAAA7FC3C901C4830600687C0600B0
:1084E000A476060000770600104A1149114840F2B0
:1084F0001F4334F0EDFC404080F311884FF003003F
:1085000002DFB6E7094A0A490A4840F2264334F036
:10851000DFFC404080F311884FF0030002DFAEE73C
:1085200009981DF091F907207AE600BFC483060080
:10853000C47D0600A47606002DE9F04F04468DB0F8
:1085400090F81C80238D406AADF82C30E307C8F307
:10855000C0170E461546C8F340180A9000F10D8169
:108560000023A383B37C707C13F001031CBFD4F8F9
:108570001E30C4F82B3004F12B0214BF638CC4F8F6
:108580002B30FF28938004F1250904F11F0240F0ED
:10859000E5800023BDF82C100A98C4F82530A9F80E
:1085A0000430A777C4F81F0091803368D3F8009097
:1085B000EB8963862B8AA386B9F83030E38628F0EE
:1085C000FDFE84F838002F68384620F0BDFC0021FD
:1085D000A881E080384623F0DDFAD6F804A02068B0
:1085E00021461DF043F9AB89AAF806301C23DAF8BE
:1085F00000408AF80430B8F1000F40F0CC808AF8CF
:108600001C80514620461DF03BF9BB687A6895F8FE
:108610005A00B5F80E80F568674C934238BF134690
:10862000C0F3C00103F1090A00F0070040F2E24381
:1086300003FB08F828F0D8FC002202212D1A0120A3
:108640001AF05CFF484620F04BFAA5FB044558A3FE
:10865000D3E90023834629462046FDF75DFFCDF888
:108660000490B3685549009120F07F490BF1040252
:10867000A3EB0A03D2B24B44012100201CF018FBEB
:1086800010F0FD0F0CD04E4A4E494F4840F23D339A
:1086900034F01EFC404080F311884FF0030002DFED
:1086A0004FF0000B5B4603220121CDF800B0584685
:1086B0001CF0BCFA384620F047FCB36806463E483A
:1086C000A3EB0A0AA8FB000139A3D3E90023FDF7B5
:1086D00023FF19463D4B08933D4B069340F26D3303
:1086E000079709933B698046CDE904B31046002300
:1086F0004FF47A72FDF710FF364B0722A9FB0331C6
:10870000CDE9028002FB0911E01A65EB01014FF48B
:108710007A720023FDF700FF0536F6B2CDE900902E
:1087200053463246012158461CF0F0F910F0FD0F77
:108730000CD0234A2349244840F26E3334F0C8FB5E
:10874000404080F311884FF0030002DF0122022134
:1087500010460DB0BDE8F04F1AF0D0BE04F11E0176
:1087600027F066F8A37FBDF82C200A98C4F82500EE
:108770000233A377A9F8042017E7114A16491248D3
:1087800040F2BD2334F0A4FB404080F311884FF049
:10879000030002DFE4E66B7F43F040036B77281DA4
:1087A00026F03EFE4FF00108E88328E7AFF3008093
:1087B0008D49FD1A0700000000CA9A3B29F0040009
:1087C000C4830600387E0600A47606002DF004005F
:1087D0005DF004008D49FD1A747A06000000000067
:1087E0000538C3B2052B0CD870B580B20D4620F009
:1087F000B3FB044618B190F93930002B03DA00209E
:1088000070BD0020704790F876000F4EC0F3C00195
:1088100000F0070028F0E8FB0C4A00F2B5500721F1
:10882000E0FB0621104606A3D3E90023FDF774FE02
:1088300020F07F402860204670BD00BFAFF300806D
:108840008D49FD1A0700000000CA9A3B8C49FD1AA9
:108850002DE9F04F93B0FF240B930B1D0A930023D7
:10886000CDE90E33054616468DF837409B464FF04E
:10887000040A1F469946984610AB0693564B05933B
:10888000564B03930FAB01930EAB002000930223D2
:1088900010930490029033460DF1370229461CF0E4
:1088A0004BFA022815D0109BCBB9FF2C26D0336889
:1088B000BB4223D0BAF1000F40D00AF1FF3AFF24A7
:1088C0005FFA8AFA8DF83740D6E7294600201CF077
:1088D0007FFA109B022BF8D0109B002BE5D0404A6A
:1088E000404941484FF4F77334F0F2FA404080F3C6
:1088F00011884FF0030002DFFF2CD8D19DF837001C
:10890000FF2829D011A9FFF76BFF0028B4D0FF2C56
:108910000E9F119B0AD04146384609931CF072FA0B
:108920000A9B03EB09029042099B17D8B8469DF8B1
:1089300037403768DDF83CB099469DE72B49284A17
:1089400029484FF4FB7334F0C3FA404080F3118898
:108950004FF0030002DFB0E7FF2C34D0244807219A
:10896000A9FB000301FB093119A3D3E90023FDF79B
:10897000D3FD044600B140341E4AABF57423A3F581
:108980001073934216D81A480721A8FB000301FB75
:1089900008310FA3D3E90023FDF7BEFD164BA3FB5F
:1089A0000B2304EB93440B9B044400201C6013B086
:1089B000BDE8F08F0BF1E87B0BF5D43B08F1FF38F5
:1089C0000BF5A57BDFE76FF0090013B0BDE8F08F72
:1089D00000CA9A3B0000000039F304003DF3040094
:1089E0001084060054840600A47606005C84060009
:1089F0008D49FD1ABFBDF07F83DE1B4300000000E0
:108A00002DE9F043C668476873683D491A68D0F895
:108A10000090A7F57423A3F510738B4283B08046B2
:108A200007D907F1E87707F5D43709F1FF3907F5DA
:108A3000A57773681169DD89CDF8049006F11003FC
:108A400001AA0220FFF704FF00284ED10199A1EBF3
:108A500009031B0237D4084649461CF0D3F90346E4
:108A600028480721A3FB000201FB032122A3D3E92D
:108A70000023FDF751FD34690444002C346109DB07
:108A800040F2E24305FB03F3A3422FD2E41AA342D0
:108A9000FCD33461D8F800301A48A3EB0903A3FBD8
:108AA0000002072101FB032113A3D3E90023FDF7F3
:108AB00033FD154BA3FB0737A0EB974020443061F3
:108AC00003B0BDE8F08348461CF09CF903460D480E
:108AD0000721A3FB000201FB032107A3D3E9002325
:108AE000FDF71AFD3469241AC7E73469002CD1D187
:108AF00003B0BDE8F08300BF00CA9A3B000000004D
:108B0000BFBDF07F8D49FD1A83DE1B4300000000CE
:108B100010B5334C3349002304F1FF3C14F83320E3
:108B2000072A02EB820E05D811F83E206FF345129A
:108B300001F83E201CF833206FF300020CF83320BC
:108B40000133082BEAD1284A284C002313700A78F5
:108B500063F300020A7091F8282063F3000281F8A1
:108B6000282091F8502063F3000281F8502091F8FA
:108B7000782063F3000281F8782091F8A02063F355
:108B8000000281F8A02091F8C82063F3000281F868
:108B9000C82091F8F02063F3000281F8F02091F8EA
:108BA000182163F3000281F81821114A9FED0A7B16
:108BB0001370104B83ED007B0F4B236028B1BDE891
:108BC00010400E490E483AF037BBBDE810400C4843
:108BD0003AF040BBAFF30080FFFFFFFFFFFFFFFF56
:108BE000419E0020009D0020B4B20020109C002077
:108BF000B3B20020286B0020A0BB0D00F9FF0400D9
:108C0000F86A0020000000002DE9F04F8FB00DF150
:108C100037010446DFF8E0A0DFF8E0800DF1360010
:108C20001CF0ACFE9DF836309DF837B00B931CF06D
:108C3000E7F8DAF80060A6FB085629A3D3E9002379
:108C40000027814631462846FDF766FCCDE90777C7
:108C5000069420F07F44DAF80400234B0593A0FB30
:108C600008011FA3D3E90023FDF756FC1F4B20F09A
:108C70007F40A4FB0331072202FB0411CDE90370FE
:108C8000E81A66EB01014FF47A720023FDF744FC09
:108C90000097CDE901404B460B985A4603211BF043
:108CA00019FF10F0FD0404D06FF08B000FB0BDE889
:108CB000F08F0F480F4A002331F016FC20B9DAF884
:108CC0000C000FB0BDE8F08F9DF837209DF83600FE
:108CD0000094234603211BF0A9FF6FF07300E5E722
:108CE0008D49FD1A07000000490705008D49FD1A4E
:108CF000B49E0020447B0B00CC9E002000CA9A3B0F
:108D000038B50F4D04461CF07BF8A9681CF07AF8C2
:108D1000696803460B48B3FBF4F4A1FB00011C4453
:108D200005A3D3E90023FDF7F7FB20F07F40844241
:108D300094BF0020012038BD8D49FD1A07000000B6
:108D4000CC9E002000CA9A3BF0B5C468636883B02B
:108D50000546002B63D12AF0CBF808202AF0EEF864
:108D6000002108462AF0DCF80022252108202AF0FC
:108D70001BF9454B019301A82AF0FEF8434940F244
:108D80005B602AF0A9F9237AC3F3420262F3061367
:108D90002046237228F034FD27F054FC58BB637A38
:108DA0009B071FD127682E68384628F0BBF8064479
:108DB0006A6806F1090101202AF0E8FA2AF0D4FBDA
:108DC00020461FF04FFC811C3246C9B2384628F0BD
:108DD000B7F8054670BB204628F03EF888B9002059
:108DE00003B0F0BD012026F0A1FF4178821C00787D
:108DF0002AF06CFAD6E7607A10F0030018BF012061
:108E0000F1E7234A2349244840F22C4334F060F828
:108E1000404080F311884FF0030002DFDFE793F852
:108E200020309A0797D01D4821462AF01FF82AF0D3
:108E30000DF9D4E7164A1A49174840F2144334F0A2
:108E400047F8184B0721A5FB030301FB05310CA3D1
:108E5000D3E90023FDF760FB13490246134834F0C1
:108E600037F8404080F311884FF0030002DF1048CC
:108E7000214629F0FBFF2AF0E9F86FF08B00AFE7FD
:108E800000CA9A3B00000000D6BE898E5555550099
:108E90002C88060010780600A4760600C91005008C
:108EA000247706008D49FD1ADC880600B08806008C
:108EB000D1130500000000002DE9F041C46894F9C9
:108EC0001630002B8CB0C0F2FF80636805460E465A
:108ED000002B40F0EE80A37D6FF30003A3752AF012
:108EE00007F808202AF02AF8002108462AF018F886
:108EF0000022252108202AF057F801201CF040FE0E
:108F00000746002800F0C78007F11C002AF076F819
:108F1000874B0B930BA82AF02FF8864940F25B6031
:108F20002AF0DAF8A07DC0F34100253028F01AF8C5
:108F30008148214629F09AFFA37D9B0603D46368EC
:108F4000002B00F0A58096202AF014FA00231A4680
:108F5000194618462AF026F927F074FB002838D164
:108F6000A37D13F0180F59D1D4F800802F68404624
:108F700027F0D8FF07446A6807F1090100202AF0AA
:108F800005FA2AF0F1FA2AF07DF920461FF0B6FD25
:108F9000011DC9B240463A4627F0D2FF804600285C
:108FA00040F0998016B9636A002B4ED1636843B1D3
:108FB000624B0122022100209D601AF0D5FA0028A0
:108FC00035D1204627F048FFD0B900200CB0BDE8CD
:108FD000F081A07DC0F3C00026F0A8FE07460DF189
:108FE0002B0027F0A7F979788046BA1C38782AF048
:108FF0006DF99DF82B00002241462AF085FBB3E76E
:109000004F4A5049504840F20B2333F061FF404033
:1090100080F311884FF0030002DFD6E7012026F02D
:1090200085FE4178821C00782AF050F99CE7444A7A
:109030004649454840F2062333F04AFF404080F35A
:1090400011884FF0030002DFBBE7414A0792414A13
:10905000059240F2F31200930892CDE90366CDE940
:10906000016606943B46314603221BF033FD10F0A7
:10907000FD0F9BD0324A384933484FF4FA7333F02E
:1090800027FF404080F311884FF0030002DF8DE797
:109090002AF0E8F860E72A4A30492B484FF4C573B4
:1090A00033F016FF404080F311884FF0030002DFD9
:1090B0002AE7636893F82030D90705D4636893F8EA
:1090C00020309A077FF507AF2548214629F0CEFECC
:1090D00029F0BCFF79E71A4A22491B4840F2E51300
:1090E00033F0F6FE204B0721A8FB030301FB0831F8
:1090F0000DA3D3E90023FDF70FFA1C4902461C48D3
:1091000033F0E6FE404080F311884FF0030002DFA9
:109110001848214629F0AAFE29F098FF6FF08B002D
:1091200054E700BFAFF3008000CA9A3B0000000084
:10913000D6BE898E5555550019920200F8110020AF
:10914000E888060010780600A47606001878060065
:10915000491F0500E91F0500B47B0600788806005A
:10916000C9100500247706008D49FD1A34890600D0
:10917000B0880600251E050038B5044628F002FE1A
:10918000A37DA27DC3F34103013303F00303032B4B
:1091900008BF002363F3420214BF03F1250025201A
:1091A000A27527F0DFFE63680BB123694BB91BF092
:1091B00027FEC11C00202AF05DF9BDE838402AF0E6
:1091C000D3B92AF085F905461BF01AFEC11C002010
:1091D0002AF050F92AF0C8F92AF07AF929461BF04A
:1091E00011FE0B4A03460721A0FB020201FB0321EB
:1091F00005A3D3E90023FDF78FF923691B1A236127
:1092000038BD00BFAFF3008000CA9A3B00000000E9
:109210008D49FD1A000000002DE9F0478AB0044690
:1092200029F046FFC0B250B927F0F4FEC4482146E9
:1092300029F01CFE0AB0BDE8F04729F007BF29F06D
:1092400057FF05462AF076F807462AF07DF8814652
:109250002AF0B4FA06462AF093FA82462AF02CF84D
:10926000EDB280462AF00CF827F0D4FE002DDDD0B8
:1092700001201CF085FC0546002800F04D8117F008
:10928000FF07F6B240F0E380002E40F0DA804FF0A6
:10929000FF093A464B463146204628F099FF002800
:1092A000C4D02A7F616800238DF823305FFA88F7E5
:1092B00002F00F03002900F0EC80616891F82010A3
:1092C000880700F1E680072BB0D0A17D090740F1A7
:1092D0004381002B40F0C4806B7F063B1F2BA5D839
:1092E00004201CF04DFC0028A0D02AF045F9636A48
:1092F000074643B9238C40F2712202FB03F3B0FB13
:10930000F3F203FB120723681A698E4B0721A2FBB5
:10931000030301FB023188A3D3E90023FDF7FCF826
:109320006FF44A7C00EB0C03BB42FFF47FAF29F0E3
:1093300099FF4846636826F0E3FFE37D990780467E
:1093400040F1E581002800F0E2818246012729F002
:10935000DDFECDE9027A09AB049305F11E0301930A
:109360002B7FC3F38013014607460093002201239D
:10937000204628F047FF384629F046FE29F08EFEA9
:10938000002840F0CA817048214629F06FFD6268CC
:1093900092F8203043F0010382F82030A37D43F09F
:1093A0008003A3751CF00EFC172202714FF6FF72AA
:1093B000C28095F81CC082463B46CCF3401C00F1AD
:1093C0001C0207F1200E1D6858689968DF68D76095
:1093D0001033734515605060916002F11002F2D1B4
:1093E0001B6813609AF81C30CAF808406CF34513E8
:1093F0008AF81C302AF06CF8002ECAF81000099B7D
:10940000CAF8143008BF4FF0FF098AF81990E37DBD
:1094100013F0020303D0B8F1000318BF01239AF838
:109420001A2063F300028AF81A201CF0CBFBCAF85A
:109430000C00DAF8000051460AB0BDE8F0471CF015
:10944000EFBB5FFA8AF026F0E9FF814621E7A07DB5
:109450005FFA89F1C0F3C00026F076FF814618E775
:10946000012B40F089806A7F0C2A7FF4DFAE2A7FCF
:10947000CDF80090194600230193D20905F1240389
:10948000204628F0F9FD00287FF42AAF2B7F03F057
:109490000F03002B70D16B7F052B7FF6C7AE252BFA
:1094A0003FF6C4AEA27D02F02102202A09D16268F3
:1094B000002A00F0C180052B7FF6B8AE252B3FF6C1
:1094C000B5AE63682BB12B7F03F00F03072B7FF43E
:1094D000ADAE03209DF823801CF052FB054600280A
:1094E0003FF4A4AE1CF06EFB4FF6FF73EB80052338
:1094F0002B71002F3CD17F20AB7E2876002E08BF39
:109500004FF0FF0968F34103286885F81990AB769E
:1095100029461CF085FB89E60C4A0D490D4840F2AE
:10952000C72333F0D5FC404080F311884FF003008F
:1095300002DFA4E6AFF3008000CA9A3B00000000FF
:109540003D1E05008D49FD1A2D200500E888060006
:1095500078880600A4760600B9F1FF0F8DF82490F4
:10956000C2F380184BD0227E91453FF4B2AE90E713
:1095700029F092FEC0B2BFE7062B8CD04521D9401E
:1095800011F0010139D1012B10D16B7F0C2B7FF42D
:109590004DAE2A7FCDF800900DF123030193D2093F
:1095A00005F12403204628F067FD08BB2B7F03F05C
:1095B0000F03042B7FF43AAE6B7F063B1F2B3FF665
:1095C00035AEA37DDB077FF531AE29F09FFD2B7F04
:1095D0000278C3F38013B3EBD21F7FF427AE0830B9
:1095E000062205F11E013AF03BFB00287FF41EAE77
:1095F0006B7F002B7FF465AF18E66B7F5BE705F1AF
:109600001E0A09AA5146404626F0BEFF00283FF434
:109610003DAFE37D03F0010343457FF437AF51468F
:10962000062204F108003AF01BFB00287FF42EAF5D
:109630002B7F03F00F034CE69620079229F09AFE49
:10964000079A104629F066FD03201CF099FA80461F
:1096500000283FF4EBAD1CF0B5FA4FF6FF73A8F805
:109660000630052388F80430002F64D17F23002EB4
:1096700088F8183014BF4B46FF2388F8193098F843
:109680001A30D8F800006FF3410388F81A304146C9
:109690001CF0C6FA29F03AFD06460322337862F33D
:1096A000030333702B7F3278C3F3801363F3C71245
:1096B0000C2332704846737026F022FEE27D92073A
:1096C0003DD500283BD03178324641F0400102F8C8
:1096D000021B0168C6F8021083889380D5F81E30FB
:1096E000B3606B8CB381304629F08EFC29F0D6FC38
:1096F000002835D129F038FFA37D204843F001032D
:109700002146A3750AB0BDE8F04729F0AFBBA77D9D
:1097100004F1190AC7F3801719E6194A19491A48BA
:1097200040F2A44333F0D4FB404080F311884FF063
:10973000030002DF27E629F0AFFDC3B297E7A37D60
:109740003278C3F3801363F38612334603F8022B97
:10975000D4F81920C6F80220B4F81D209A80BDE77D
:10976000074A084908484FF4A56333F0B1FB40406D
:1097700080F311884FF0030002DFBBE7511E0500A4
:10978000E888060080880600A47606000000000035
:109790002DE9F041C468A2894FF6FF739A4282B066
:1097A00000F0C780054628F031FE2B89628AE08AE6
:1097B0001A4492B21044637FA28280B2411CE182BB
:1097C0005E064FF00001618204F1180100F18C8007
:1097D00003F03F000B46A17F009004F11F0025F02D
:1097E000D7FD0646D4E90B231344D4E90D0200212A
:1097F0000244E1626163A16AA26394F872208B4221
:1098000028BF0B4612F00402236377D029F070FBC7
:10981000082029F093FB201D29F0AEFB2389A17AB3
:1098200040F25B6043EA014129F056FC304627F0E4
:1098300099FB2146584829F019FB962029F09AFDFA
:1098400094F85A2094F85B00C2F3C003002102F0A0
:10985000070200F0070029F0A5FC204628F038FE9A
:1098600027682E68384627F05DFB06446A6806F1D3
:109870000901002029F08AFD804629F049FE0020D8
:1098800029F060FE236B94F85B0003F13002A36BB8
:1098900000F00700012103EB420529F0C3FB45441A
:1098A000054494F85B0000F00700022824D0042847
:1098B0000CBF4FF4BC73282301211D4429F0B4FBD5
:1098C000284429F017FEA18905313246C9B238462D
:1098D00027F036FB054698BB204627F0BDFAD0B9E5
:1098E000002002B0BDE8F0810A4603F03F03E18B9F
:1098F00025F09AFD064675E71823DDE7D4E9170140
:1099000019F0C4FD002881D194F8723043F00403AB
:1099100084F872307AE7214A2149224840F25513EF
:1099200033F0D6FA404080F311884FF0030002DF95
:10993000D6E71D48214629F099FA29F087FBCFE7A1
:10994000164A1A49174840F24B1333F0C1FA184B24
:109950000721A5FB030301FB05310DA3D3E9002378
:10996000FCF7DAFD13490246134833F0B1FA4040E0
:1099700080F311884FF0030002DF1048214629F0E0
:1099800075FA29F063FB6FF08B00AAE7AFF3008054
:1099900000CA9A3B0000000029270500B489060090
:1099A00010780600A4760600C9100500247706008A
:1099B0008D49FD1A088A0600B0880600A51005002A
:1099C000F0B5C468A2894FF6FF739A4285B000F0E3
:1099D0008B80054628F01AFD2B89628AE08A1A449A
:1099E00092B21044637FA28280B2411CE1825E0683
:1099F0004FF00001618204F118015FD403F03F00D1
:109A00000B46A17F009004F11F0025F0C1FC064623
:109A1000204603A928F02AFE039B94F872101A78B6
:109A200061F3C3021A70039A94F872301178C3F389
:109A3000400363F38201117029F05AFA082029F0DB
:109A40007DFA201D29F098FA2389A17A40F25B6003
:109A500043EA014129F040FB304627F083FA03999D
:109A6000204628F0D7FD2146374829F0FFF99620F7
:109A700029F080FC94F85B0000F0070029F04AFB15
:109A800027682E68384627F04DFA06446A6806F1C2
:109A90000901012029F07AFC29F066FDA189053130
:109AA0003246C9B2384627F04BFA054618BB204665
:109AB00027F0D2F950B9002005B0F0BD0A4603F0F6
:109AC0003F03E18B25F0B0FC0646A1E71F4A204981
:109AD000204840F2031333F0FBF9404080F3118833
:109AE0004FF0030002DFE6E71B48214629F0BEF9EC
:109AF00029F0ACFADFE7154A18491648F92333F084
:109B0000E7F9174B0721A5FB030301FB05310CA364
:109B1000D3E90023FCF700FD12490246124833F056
:109B2000D7F9404080F311884FF0030002DF0F485F
:109B3000214629F09BF929F089FA6FF08B00BBE7E9
:109B400000CA9A3B000000005D250500148A06004B
:109B500010780600A4760600C910050024770600D8
:109B60008D49FD1A648A0600B0880600A51005001C
:109B70002DE9F04F87B00546039117461E468368CE
:109B800004AA5B689847002831DBDDE9044AA7FB9B
:109B900004B307FB0A37584619A3D3E90023394613
:109BA000FCF7BAFCDFF8608002904FF0FF39D9452E
:109BB00078EB07031ED3A6FB04B406FB0A4410A3EC
:109BC000D3E9002321465846FCF7A6FCD94578EB9B
:109BD000040403460ED30299AA6899420DD3BDF836
:109BE0004010009114682846DDE90221A04707B023
:109BF000BDE8F08F6FF08500F9E76FF01500F6E72C
:109C000000CA9A3B00000000FFC99A3B0000000018
:109C10002DE9F0472DED028B9FED498B4A4E84B024
:109C200004464FF02003EFF3118783F31288BFF34C
:109C30006F8FD4F8C8508DB9022104F1E00039F0DB
:109C400044FA002843D100238DED008B029304F1E8
:109C5000D00239463D4831F025F9E2E7D4F8CC206E
:109C60002B68C4F8C830954208BFC4F8CC30D4F88B
:109C7000E03043F00203C4F8E030EB6823F0040363
:109C800043F00103EB606B6887F31188BFF36F8FBC
:109C9000284698474FF02003EFF3118983F3128889
:109CA000BFF36F8FEB68990723F0010219D4EA60C4
:109CB000D4F8E03023F00203C4F8E03089F31188CF
:109CC000BFF36F8FDB05ACD430F0CCFFA9E704F114
:109CD000D80500220121284639F0FDFB0028F8D1E3
:109CE000B1E7306823F00303EB600028E0D00027E1
:109CF000D0F80080BA460028DAD042689542014682
:109D00000BD1016897B972683160824200D17160ED
:109D100040F808AB30F0C2FB3946B8F1000F0BD069
:109D2000D8F8002040460F469046E4E73960726854
:109D3000824208BF7760EBE74246F3E7AFF300806B
:109D4000FFFFFFFFFFFFFFFF14AF00201AB300204B
:109D5000F8B510EE904A34F000472DED048B10EE6C
:109D6000103AB0EE609A0DD183F480035B0013F5D6
:109D7000000F40F2098230EE098AB0EE480ABDECCD
:109D8000048BF8BD23F00040B0F1FF4F02D8B7F1CB
:109D9000FF4F08D9B3F17E5FEDD184F480046400F5
:109DA00014F5000FE5E7002B01462DDAB7F1974FC8
:109DB0000CD3B7F1FF4F2AD00225B4F17C5F41D11B
:109DC000002BC0F28F80B1EEC08AD6E7B7F17E5F7C
:109DD00031D3FA15C2F1960247FA02F505FA02F2FA
:109DE000BA423DD1B7F17E5F4AD1002C80F2D281D8
:109DF000B5EE400AF1EE10FA50D1D80FBDEC048B4D
:109E0000BDE8F84031F00ABFB7F1FF4F3DD1B0F1E6
:109E10007E5F00F0B98108D9DFED977A002CB4BFDE
:109E2000B0EE678AB0EE498AA7E7002C80F2AF81D6
:109E3000B1EE498AA1E7B4F1804F34D0B4F17C5F30
:109E40005CD0002523F04042B2F17E5FB0EEC08AC4
:109E50003FD1002CBCBFB7EE007A87EE088A29E01C
:109E6000B7F17E5FC1D00025B4F1804FEAD1B0F1E7
:109E7000BF4F1AD2B0F1D05F29D920EE008A7CE71B
:109E800005F00105C5F10205EEE7B7F17E5FACD044
:109E9000B4F1804F4FF00005E9D08EE7B7EE007ABD
:109EA00087EE008A69E70025E1E7B0F1FF4FB0EEE9
:109EB000C08A35D1002BBFF660AFA0F17E50284399
:109EC00016D1BDEC048BBDE8F84031F0B7BEB0EE62
:109ED000C08A28BB002C1EDA002B8FDA6B1E58427A
:109EE00058418BE7B0F1FF4FB0EEC08A40F055818A
:109EF000012D7FF442AFB1EE488A3EE7B0F1FF4F4B
:109F0000B0EEC08A3FF439AFB0F17E5FD9D00028FF
:109F10003FF433AFD5E7012D08BFB0EE408A2CE700
:109F2000DE0F013E55EA0602CBD0B7F19A4F40F260
:109F30004081524B984208D8002C0BDA0020BDEC2F
:109F4000048BBDE8F84031F059BE4D4B984208D91A
:109F5000002CF3DC0020BDEC048BBDE8F84031F0B0
:109F60003DBEB7EE007A38EE478ADFED467ADFED88
:109F7000469A3FA1D1E9000168EE278AFCF77CFAF6
:109F800007EE900AB5EE007A48EE477AB6EE007A10
:109F900007EEC87A68EE087ADFED3C6A27EE277A8A
:109FA000F0EE687A47EE667A68EE299A39EEA77A7B
:109FB00017EE103A23F47F6323F00F0307EE103AF5
:109FC00077EE699A77EEE97A013D24F47F643543B0
:109FD000B7EE007A24F00F04BFEE008A18BFB0EE8F
:109FE000478A07EE104A67EE890A39EE477A07EE8C
:109FF000903A47EE270A07EE104A67EE877A30EE6E
:10A00000A77A17EE101A002921F000431ADDB3F1E8
:10A01000864F09D9B5EEC08AF1EE10FA4CBF012087
:10A0200000208CE70120E5E036D1DFED196A37EE3C
:10A03000677A70EEA66AF4EEC76AF1EE10FAE9DC10
:10A0400086232DE0134A934207D9B5EEC08AF1EE7C
:10A0500010FA4CBF012000207DE71DD137EE677A52
:10A06000B4EEE07AF1EE10FAEADBEEE7AFF300804F
:10A07000E13D55555555D53F00000000F3FF7F3FAA
:10A080000700803F70A5EC3600AAB83F3BAAB83F56
:10A090003CAA383300001643B3F17C5F6FD9DB155F
:10A0A0007E3B4FF4000018410844C0F3C753A04A58
:10A0B0007F3B1A41024007EE102AC0F3160040F41D
:10A0C0000000C3F117031841002977EEC77AB8BF23
:10A0D000404237EEA07ADFED976ADFED975A9FEDA9
:10A0E000976A17EE103A23F47F6323F00F0307EE0D
:10A0F000103A77EE677A67EE266A70EEE70ADFEDD0
:10A10000907A67EE277A9FED8F7A40EE877AB7EEE6
:10A11000000A36EEA77A77EE666A77EEE67A67EEA1
:10A12000076A47EE277A16EEA56ADFED875A46EEF4
:10A13000265A9FED866A15EEA66ADFED855A46EE31
:10A14000265AB0EE476A05EEE66AF0EE006A67EE60
:10A15000065A36EE666AC5EE866A76EEE77A77EEDE
:10A16000C77A30EE670A10EE103A03EBC053B3F52E
:10A17000000F06DA31F0ECFC20EE088AFDE5002045
:10A18000A7E700EE103AF7E7B7EE008AF5E59FED96
:10A19000718AF2E5B0EE408AEFE5B0F17E5F3FF400
:10A1A0008CAE00283FF4B7AE002D3FF48AAE0225F6
:10A1B000002613F0FF4F08BF9FED677A674802BF84
:10A1C00068EE077A6FF0170317EE901A4FEAE15224
:10A1D00018BF00237F3A1A44C1F31603834243F0A9
:10A1E0007E5106DD5E4883427FF71CAF0132A1F548
:10A1F000000100205B4B03EB8003D3ED005A5A4B68
:10A2000006EE101A75EE867AF7EE006AC6EEA74AD9
:10A21000491041F0005101F5802101EB405136EE2B
:10A22000657A07EE901A27EE245A15EE107A1F4031
:10A2300006EE907A06EEE77A77EEE57ADFED4B5A96
:10A2400036EE676A65EE057A06EE667A9FED486A35
:10A2500047EE865A9FED476A05EEA76ADFED465A3C
:10A2600046EE275A9FED456A05EEA76ADFED445A90
:10A2700046EE275A27EE247A36EE856A67EEA77AED
:10A2800026EE076A05EEA76A66EEA64AF0EE085AC1
:10A2900074EEA57A77EE867A17EE901A194007EEDB
:10A2A000901A77EEE55A27EE277A75EEE45A66EEB5
:10A2B000A76A36EE656A06EE057A9FED326A76EE9B
:10A2C000877A17EE901A194007EE901A77EEE66A31
:10A2D00027EE866A37EE667ADFED2B6A2B4967EE4A
:10A2E000A67ADFED2B6A47EE267A01EB800191ED2D
:10A2F000007A77EE877A07EE102A264A02EB800270
:10A30000D2ED005A76EE276AB8EEC77A76EEA56AE5
:10A3100076EE876A16EE902A134006EE903A36EEF5
:10A32000C77A37EE657A37EE467A77EEC77A4BE62C
:10A33000000080FF0072313F4CBB31330EEADD3547
:10A340008CBEBF351872313F55B38A38610B363B2E
:10A35000ABAA2A3E000000000000804B71C41C0024
:10A36000D6B35D00948E060000F0FFFF55326C3EC0
:10A3700042F1533E05A38B3EABAAAA3EB76DDB3E2E
:10A380009A99193F0038763FA0C39D36848E060007
:10A390004F38763F8C8E06002DE9F04186B00E4690
:10A3A00000AF1D4614468AB9204B7B61022320482A
:10A3B0003B614FF48651134607F1100231F06FFCF8
:10A3C0002046B4811837BD46BDE8F0816E4688B09E
:10A3D0006A46184BDFF8708053610423C2E9068592
:10A3E000134842F8103F4FF40451002331F057FC5A
:10A3F00082B06A46104B0E48C2E905380F4BD36154
:10A4000040F20133138429050D4B42F8103F41F40B
:10A410001451234631F043FC0A4B1B68B5460BB977
:10A420000120CFE7294620469847F9E7E892060041
:10A4300074480600069306007FEA0600289306008B
:10A44000040000019C6F0020409F06002DE9F041B0
:10A4500004230370154B8360154BC3600123002553
:10A4600003824FF6FF7300AF044680F86450C56561
:10A47000A0F86050C382057600F10801406815F02D
:10A4800001FB80B1E84688B06A460A4B0326C2E960
:10A4900005304FF4C25142F8106F07482B4631F097
:10A4A000FEFBC5462670BD46BDE8F0817414002051
:10A4B0003DB2020033930600744806002DE9F043D4
:10A4C00087B0E94600AF204D204B7B614FF002087A
:10A4D0004FF4865607F11002002331462846C7F88C
:10A4E000108031F0DCFB1A481A49002404704460E3
:10A4F0006C3038F05DFE184811F096F888B06A4666
:10A50000164B536141F288339361032342F8103FA5
:10A510004FF4C6512346284631F0C1FB4FF4203298
:10A52000CD4600230E4830F023F90E4B07F1100200
:10A53000C7E9048328462346314631F0B0FB204664
:10A540001C37BD46BDE8F0837448060052930600F0
:10A55000A06F002021A60200E00300206F930600F8
:10A56000000000209B930600F0B587B0044620222F
:10A5700000AF0021243039F0BCF9244B23620123C1
:10A5800004F14402B4F85E1023876D46B4F86030DD
:10A5900062638AB0A38521866A461D48C2E90731F5
:10A5A000C2E90503052342F8103F1A484FF423512E
:10A5B000002331F074FB04F120016068AD4615F012
:10A5C0009FFEA8B110F1780F12D088B06A46124BE6
:10A5D0000326C2E905304FF4C25142F8106F0D480E
:10A5E000002331F05CFBAD4626701C37BD46F0BD44
:10A5F0000A4B7B6102233B610648002307F11002EE
:10A600004FF4865131F04BFBEFE700BF99A30200F6
:10A61000B493060074480600F993060013940600EC
:10A6200090B587B010F86C3C052B00AF12D06C468B
:10A6300088B06A4611491248C2E90513032342F85B
:10A64000103F4FF4C451002331F029FBA5461C37BD
:10A65000BD4690BD30F80C3C5BB90A4A7A610222D3
:10A660003A61074807F110024FF4825131F017FBAD
:10A67000EDE76C38FFF778FFE9E700BF3794060095
:10A68000744806005B9406002DE9F04186B0B0F8EE
:10A69000603000AF04465BB9384A7A6102223A6101
:10A6A0004FF4825107F11002354831F0F8FA4CE0CE
:10A6B00005230370406835F033FB6D4688B0804653
:10A6C0006A46304B0326C2E905304FF4C65142F8C2
:10A6D000106F2B48002331F0E2FAB8F1010FAD46BC
:10A6E0000ED988B06A46284BC2E9053842F8106F87
:10A6F00000234FF4C651224831F0D1FAAD4621E093
:10A7000088B06A46214B1E48C2E905384FF4C6514D
:10A71000002342F8106F31F0C2FA02216068AD46A2
:10A7200035F0D7FA10F1780F034612D1184B7B6140
:10A7300002233B611248002307F110024FF48651B7
:10A7400031F0ADFA2046FFF70FFF1837BD46BDE8E0
:10A75000F08150B188B06A460E490023C2E9051065
:10A7600042F8106F4FF4C451C5E70B4A7A610222D8
:10A770003A614FF4865107F1100295E77E94060086
:10A78000744806009F940600BA940600E9940600F7
:10A7900016950600429506007C950600F0B50378F4
:10A7A0009A1E012A87B00C4622D8416845780023BA
:10A7B0004E1C41F61207AB4210DB0378083B012B1D
:10A7C0001BD8457841681F2D28BF1F252A46A01C8D
:10A7D000254439F080F80023AB700EE016F803C072
:10A7E000CA5C42EA0C2212B2BA4210D00233E2E74B
:10A7F000FF2BE2D14378012B02D8012007B0F0BD36
:10A8000043681B884C2BF8D101234B70D5E70123FB
:10A810002370064B059302230548049304AA0023E2
:10A820004FF4865131F03BFA0020E7E7B39506007C
:10A8300074480600F0B587B06E4600AF1F4B7B61D1
:10A8400002233B611E481F4C002307F110024FF406
:10A85000865131F024FA1C4B00251D70237833B348
:10A8600010F0CCFE88B110F1780F0ED088B06A4697
:10A87000164BC2E90530032342F8103F10482B461F
:10A880004FF4C25131F00BFAB546002323706C46E9
:10A8900088B06A460E4951610E499161032142F820
:10A8A000101F07484FF4C85131F0F9F9A5460A487E
:10A8B00038F0D0FC1C37BD46F0BD00BFDB9506006C
:10A8C000744806007AB000207BB00020FB9506009B
:10A8D00018960600569F06003000002070B50378D9
:10A8E0008AB004460E4607AD032B20D8DFE803F0FC
:10A8F00002191B1D11492846FBF782FF0595637855
:10A900000493A3780393E378029323790193637903
:10A910000093A3790A4A1E21304630F079FD0AB02F
:10A9200070BD0849E7E70849E5E70849E3E7084A51
:10A930000A21284630F06CFDE0E700BF32960600A1
:10A940005496060039960600409606004A96060080
:10A95000FE9F06002DE9F041584C8EB0636883429B
:10A9600000AF0E4615463BD135F025FA07F1180128
:10A97000FFF7B4FF07F11801002D5ED094F87C308A
:10A980000133DBB2E8468CB084F87C306A4653620F
:10A99000032393624A484FF400739385494BC2E9FD
:10A9A0000501C2E90765484842F8103F4FF471516C
:10A9B000002331F074F994F87C30022BC54613D98A
:10A9C000424B7B61022340483B614FF4825100239C
:10A9D00007F1100231F063F90521606835F0EDF9F7
:10A9E0003837BD46BDE8F0812378032B0FD1384BB3
:10A9F0007B6102233B613448002307F110024FF4CE
:10AA0000865131F04CF92046FFF720FDE8E7052B91
:10AA1000E6D1B4F86030002BE2D02E4B7B610223EC
:10AA20003B612948002307F110024FF4865131F0B1
:10AA300036F92046FFF798FDD2E7E8468AB06A4625
:10AA4000254BD661C2E905314FF400731384234BC3
:10AA500042F8103F1C482B464FF4135131F01FF9B8
:10AA60002378032BC54610D1012EB9D988B06A4688
:10AA70001B491548C2E9051642F8103F4FF4C6516C
:10AA80002B4631F00CF9C546BDE7052BA8D1B4F82B
:10AA90006030002BA4D0012EA2D9124B7B6102237F
:10AAA0003B6109482B4607F110024FF4865131F003
:10AAB000F6F804F16C002FF0F3FD91E7A06F002091
:10AAC000779606000700000174480600AD96060060
:10AAD000E09606000C97060044970600040000016B
:10AAE00066970600A19706002DE9F04389B000AFF4
:10AAF0000C46394681466D46FFF7F0FE88B06A463F
:10AB00001E4BDFF88C801E484FF40076C2E90537F3
:10AB10009683002342F8108F4FF4E65131F0BFF8CE
:10AB20004946AD4600200EF0FBFF0346A0B18AB0B7
:10AB30006A461449144BD061C2E9051716841048BF
:10AB400042F8103F4FF41251002331F0A8F8AD46FF
:10AB50002437BD46BDE8F08388B06A460B4996832A
:10AB6000C2E90517064842F8108F4FF4E65131F05C
:10AB700096F823680133AD462360E9E7D1970600D4
:10AB800074480600E097060004000001FD970600E7
:10AB9000030000012DE9F047974A984E9AB01368D8
:10ABA0000D4601333221136093FBF1F201FB1232A7
:10ABB000012A00AF044611D1E84688B031786A46D0
:10ABC0008F48D161C2E90503042342F8103F8D4844
:10ABD00000234FF4035131F062F8C54633788BB14E
:10ABE00094F9053055330DDBDFF85C82216898F865
:10ABF0000030002B67D0072208F1650039F030F8EB
:10AC0000002860D16837BD46BDE8F0877E4B81E003
:10AC10007E4BFB610223BB617A48002307F11802D7
:10AC20004FF4845131F03BF8ECE797F84630002BB5
:10AC3000E8D007F1240620683146FFF74FFE94F96B
:10AC400005306C468AB06A4671491362714B516196
:10AC5000536207F14601704B6A48C2E9061642F892
:10AC6000103F4FF443512B4631F019F8A546C9E780
:10AC700010F1780F00F08D8088B06A46674BC2E90A
:10AC80000530032342F8103F5E4853464FF4C45149
:10AC900031F005F8CD467CE0E94688B06A46604B65
:10ACA000C2E905354FF4007393835E4B42F8103FC1
:10ACB0004FF4E6510346534830F0F1FFCD4634706F
:10ACC00088F800409EE7584B07F1440C03F1200937
:10ACD000624618685968E646AEE8030008334B45FB
:10ACE000F446F6D11B885149AEF8003028460DF0E5
:10ACF00065FD97F84450002D97D007F12405206892
:10AD00002946FFF7EBFD97F84630002B3FF47EAF66
:10AD100007F14603E9468AB094F905106A464448AB
:10AD2000C2E907313B4B53623B4BC2E905054FF487
:10AD3000435142F8103F3348002330F0B0FF98F8F9
:10AD400000A0CD46BAF1000F7FF462AF88B06A462A
:10AD5000384B2C48C2E905354FF400739383314BCF
:10AD600042F8103F4FF4E651534630F098FF02236B
:10AD700088F800302368304A1968C8F86510998847
:10AD800091809B799371CD4610F038FC00287FF4B8
:10AD90006FAF322030F085FF284BDFF8B090DFF83E
:10ADA000B0800FCB07F1080C8CE80F00244A206814
:10ADB0004FF0C873C7E9002361464B463A4611F08D
:10ADC0005BFC044600283FF467AF6D4688B06A46D6
:10ADD0001C4BC2E90530032342F8103F0948002309
:10ADE0004FF4C25130F05BFF0023AD4609F8043C3C
:10ADF00088F8003006E700BF986F00207BB0002085
:10AE000012980600744806000A9806007298060018
:10AE10008598060000020103050000029D980600C7
:10AE2000EC98060003000001204A06009DA70200DE
:10AE3000439806006098060005700020104A06003E
:10AE400018002800C7980600A06F0020A46F0020FB
:10AE50007AB00020F0B53B4E8DB0337800AF002BB8
:10AE60003CD1394A117841B3384A1478002C3AD190
:10AE700010F0C4FB002841D1354D322030F011FFD5
:10AE80000FCD3C1D0FC42B6823600021381D10F02E
:10AE900035FB0446002845D06D4688B06A462D4BE8
:10AEA000C2E90530032342F8103F2B4800234FF43A
:10AEB000C25130F0F4FEAD4611E06C4688B06A46EF
:10AEC000264B5361264B9361032342F8103F0B46F8
:10AED00021484FF4C85130F0E2FEA5460024204638
:10AEE0003437BD46F0BD6C4688B06A461D49516195
:10AEF0001B499161032142F8101FE9E710F1780F17
:10AF0000BAD06D4688B06A46174BC2E905300323B4
:10AF100042F8103F104823464FF4C45130F0BFFEB2
:10AF2000AD46A9E7114BFB620223BB6207F1280281
:10AF300003464FF48651084830F0B1FE01233370C8
:10AF4000CCE700BF7AB000207BB00020A06F0020CB
:10AF5000444A06004C99060074480600079906000A
:10AF6000659F0600329906009D9806006F990600BD
:10AF7000F0B52E4D87B02C7800AF2CB36C4688B05E
:10AF80006A462B4B53612B4B9361032342F8103FCE
:10AF9000294800234FF4C85130F081FEA5461C37E4
:10AFA000BD46F0BD6D4688B06A46244B5361214BC7
:10AFB0009361032342F8103F1F4823464FF4C851C2
:10AFC00030F06DFEAD46EAE71D4B1B78022BE9D849
:10AFD0006E461C4B7B6102233B611748234607F1F9
:10AFE00010024FF4865130F05AFE01232B70FFF708
:10AFF00031FFB0B188B06A46134BC2E90530032374
:10B0000042F8103F0C4823464FF4C45130F047FE3D
:10B010000E482C70B5464FF4702200232FF0A8FB89
:10B02000BDE70B484FF4A0220023F7E77BB00020D8
:10B0300081990600759F060074480600AD990600C8
:10B04000A06F0020D3990600079A06000000002098
:10B05000300000202DE9F043464C8FB063688342F6
:10B0600000AF0D4627D134F0A6FE07F11801FFF717
:10B0700035FC6E4607F118010DB38AB06A463E4BA7
:10B08000D561C2E905314FF4007313843B4B42F89C
:10B09000103F3B4800234FF4115130F000FEB546FD
:10B0A000606834F072FD002363602370354B1B78B9
:10B0B0000BB1FFF7CFFE3C37BD46BDE8F08388B04B
:10B0C0006A46314B2E48C2E905314FF40073938331
:10B0D0002E4B42F8103F4FF4E6512B464FF0030839
:10B0E00030F0DDFDB54684F8008084F87C50284BB4
:10B0F00023487B614FF002092B4607F110024FF401
:10B100008651C7F8109030F0CAFD4946606834F0A7
:10B11000E0FD10F1780F034611D11E4B1848C7E926
:10B12000049307F110022B464FF4865130F0B7FD1F
:10B13000642030F0B6FD2046FFF788F9BBE770B118
:10B1400088B06A4614492B46C2E9051042F8108FB0
:10B150000B484FF4C45130F0A2FDB546E8E70F4A62
:10B160000748C7E904924FF4865107F1100230F006
:10B1700096FDA0E7A06F0020269A060004000001BB
:10B18000744806007BB00020479A060003000001C7
:10B19000649A0600929A0600C59A0600059B06006E
:10B1A0002DE9F0411F4C8EB06368834200AF0D461D
:10B1B00033D107F1180634F0FEFD3146FFF78EFB60
:10B1C000E8468AB06A46184BD561C2E905364FF4A5
:10B1D00000731384154B42F8103F4FF413510023B2
:10B1E000134830F05CFDC546606834F0CEFC0023A7
:10B1F00063602370A4F860300E4A7A6102220C4822
:10B200003A614FF4865107F1100230F048FD0A48C8
:10B210004FF4C03200232FF0ABFA3837BD46BDE8FB
:10B22000F08100BFA06F00203E9B060004000001DB
:10B23000744806006B9B0600000000202DE9F041D9
:10B240005F4C86B06368984200AF064617D194F809
:10B25000645000296CD1002D50D1B4F85C309BB9FA
:10B26000584A7A61022258483A614FF4845107F1F2
:10B27000100230F014FD1321304634F09EFD002002
:10B280001837BD46BDE8F0816E4688B0B4F85E1050
:10B290006A464E48D161C2E90503042342F8103FD3
:10B2A00049482B464FF4035130F0F9FC012384F850
:10B2B0006430474BA360B4F85C3023824FF003083E
:10B2C000B4F85E306068E382B54604F1080184F8A2
:10B2D000188014F0D7FB0028D1D088B06A463D4BC7
:10B2E0004FF4C251C2E9053042F8108F36482B4660
:10B2F00030F0D5FCB54684F80080C0E7012DBED102
:10B30000B4F86030022284F8642073B1324B2E48C6
:10B31000C7E904230B4607F110024FF4865130F0C1
:10B32000BEFC2046FFF7B0F9A9E72C4979619AE7FE
:10B33000DDB9CB68098AA4F85C109B88A4F85E305C
:10B340006C468AB06A462648506126481362052337
:10B35000C2E9060142F8103F1B482B464FF4245126
:10B3600030F09DFCA54601208AE7012DFBD1CD6878
:10B37000098AAB886E4688B06A461B48D3610423AD
:10B38000C2E9050142F8103F0F4800234FF4035172
:10B3900030F085FCAB88A4F86030AB79DB06B546AD
:10B3A000E1D5124B7B61022507483D61002307F17F
:10B3B00010024FF4865130F072FC84F86450B0E70C
:10B3C000A06F0020989B060074480600C29B0600F0
:10B3D00070140020049C06002D9C06005B9C060057
:10B3E0007E9C06002F9F0600AB9C0600EC9C06008E
:10B3F000014B1860704700BF9C6F00202DE9F041A1
:10B40000234D86B02C7800AF7CB1224B7B610223A8
:10B410003B612148002307F110024FF4865130F0C0
:10B420003EFC1837BD46BDE8F081E8461B4B7B610A
:10B43000022607F1100218483E6123464FF4865158
:10B4400030F02DFC88B06A46154B53611E23936182
:10B45000032342F8103F104823464FF4C65130F002
:10B460001EFCC5460F4B0C4807F11002C7E90463E8
:10B470004FF48651234630F012FC01232B70FFF766
:10B48000E9FC4FF47022002307482FF071F9C8E758
:10B490007BB00020219D060074480600399D0600FF
:10B4A0005B9D06008B9D060030000020024B1B7840
:10B4B0000BB1FFF7BFB970477BB000207FB5084BD9
:10B4C0000593022304930748002304AA4FF48651EE
:10B4D00030F0E5FB07B05DF804EBFFF7E7BF00BF16
:10B4E000BC9D0600744806002DE9F04389B000AF0A
:10B4F000434B7B6102233B6107F11002414800236B
:10B500004FF4865130F0CBFB3F4B404A1978404B0B
:10B510006E4688B0002918BF13466C463D4ADFF8D6
:10B520002881384825464FF40079C4E90523A4F85A
:10B530001C9045F8108F00232A464FF4E65130F056
:10B54000AEFB354B354A1978354BB546002918BF47
:10B550001346A546334AA4F81C90C4E90523C4F851
:10B560001080314C274800232A464FF4E65130F032
:10B5700096FB2378B546002B32D0394604F165009E
:10B58000FFF7ACF92378B4F86000062B96BF274A82
:10B59000274952F823106C468CB06A46254B5361FC
:10B5A000C2E9081024499162002324491548C2E9E0
:10B5B000063742F8101F4FF4635130F070FBA54678
:10B5C0001F4B7B6102233B6107F110020D480023F2
:10B5D0004FF4865130F063FB2437BD46BDE8F0835D
:10B5E00088B06A4617490748C2E90513032142F8A3
:10B5F000101F4FF4C65130F052FBB546E0E700BFD4
:10B60000E79D0600744806007BB00020D19D06002F
:10B61000D49D0600FB9D06007AB00020D89D060050
:10B62000DC9D06000C9E0600A06F0020C84B0600A3
:10B63000DF9D0600199E06000103020406000002B9
:10B640004D9E06003C9E060003000001B0B588B088
:10B650006D4600AF2E4BFB612E4C2F480223BB6181
:10B6600007F1180200234FF4865130F018FB63688D
:10B6700093B188B06A46294B5361032100232648C1
:10B68000936142F8101F4FF4C65130F008FB1321AC
:10B690006068AD4634F091FB214B0024C8201C604B
:10B6A00003F8654CC3F8034030F0FBFA3A1D1D491E
:10B6B0007C60204617F0A2FB6D4688B07B686A4626
:10B6C00019491548C2E90513032342F8103F4FF406
:10B6D000C651234630F0E3FAAD46144BFB61022518
:10B6E0000D48BD61234607F118024FF4865130F032
:10B6F000D6FA0F4B0848C7E9065307F1180223464C
:10B700004FF4865130F0CBFA2037BD46B0BD00BFB4
:10B71000619E0600A06F002074480600789E060017
:10B7200005700020E9AA0200919E0600A29E060074
:10B73000CD9E0600B0B586B000AF144B7B610223EE
:10B740003B61134D07F110024FF486512846002348
:10B7500009F02AF80F4B104800241C605C609C60C4
:10B76000FFF746FE88B06A460C4B53610423936191
:10B77000032342F8103F4FF4C6512846234609F0F0
:10B7800013F820461837BD46B0BD00BF969F06008F
:10B790007C4806002CAF0020A1B70200B89F06002D
:10B7A0002DE9F04F012985B0044600AF884614D931
:10B7B0000378012B15D06C4688B06A466C495161FC
:10B7C0006C49C2E90613042342F8103F00234FF4EA
:10B7D0000451694808F0E8FFA5461437BD46BDE8A6
:10B7E000F08F664B90F801A01978CAF300129142CD
:10B7F0000AF00F050AF0100B19D0DFF878911A70D3
:10B80000BBF1000F00F08380002001F083FB6E4647
:10B8100088B06A465A4BC2E90539032342F8103F03
:10B82000002355484FF4C85108F0BEFFB546002D1F
:10B8300000F09880B8F1050F77D9A378DB0750D5D1
:10B84000267994F803904F4D320202F4706249EA6F
:10B8500002036279FB60360946EA021BAA7A99461E
:10B860005E46002A37D0EC882A891C1B24B2B21A03
:10B87000002C12B2B8BF0334002AB8BF0332A410A0
:10B88000911044EAA20212B22AB32046796001F074
:10B8900005FC03F0F7F8C7F808D08EB0EB882889CC
:10B8A0006A467968DFF8ECE0C2F814E0C2E90813F0
:10B8B000FB68DFF8C0E09062C2E90B3B0923C2E9F4
:10B8C00006E442F8103F2C4800234FF4924108F060
:10B8D0006BFFD7F808D0A5F8069001232E81AB7234
:10B8E0002B701AF00E0F3FF478AFB8F1090F7FF606
:10B8F00074AF6C4688B06A46234B53611D4B93610D
:10B90000032342F8103F00234FF4C85161E7584623
:10B9100001F04AFB6E4688B06A461C4BC2E9053905
:10B92000032342F8103F5B467BE7164B1B78002B46
:10B930003FF453AF6C4688B06A46154B53610D4BCC
:10B940009361032342F8103F0B4800234FF4C85182
:10B9500008F02AFF0B4B0022A5461A709A7201F0DC
:10B96000DDFBBEE7074B1B78002BBAD0E2E700BF38
:10B97000E79F0600A9A006007C4806007CB00020D6
:10B9800005A006002CAF00206CA0060018A0060041
:10B990005AA006002CA0060098B500AF03F0CEFC1C
:10B9A00001780446094830F0CCFE88B023786A4616
:10B9B00007490848C2E90513032342F8103F4FF432
:10B9C000C65130F07EF9BD4698BD00BFCEA006003E
:10B9D000D5A00600D44806002DE9F04B8AB000AF90
:10B9E000AB4837F0C6F9022368B9AA4AAA48C7E9A2
:10B9F00008324FF4825107F1200230F062F9283703
:10BA0000BD46BDE8F08BA54AA14EA348DFF8FC92E5
:10BA1000DFF8FC82C7E908324FF4865107F12002B3
:10BA200030F04FF9B3687B607B681B6863B107F146
:10BA30000F013046984738B9FB7B212B08D1C8F855
:10BA40000000012389F800300A2030F047F9EBE7C5
:10BA50000D2B99F8002002D00A2B40F06F81002AAC
:10BA600000F08880D8F80020002A40F383808C4BB7
:10BA7000002199541A78202A1C4603F10103F9D0B9
:10BA8000092AF7D02046FAF7C3FE0546002D71D0EB
:10BA90006A1EA35C202B03D00A2B03D8082B03D9E2
:10BAA0001546F3E70D2BFBD0EB468AB06A467D4B7B
:10BAB000D461C2E9053540F2013313847A4B42F870
:10BAC000103F75484FF4135130F0FBF87749DD46CD
:10BAD0000622204638F0D4F828B1754905222046C0
